:020000040800F2
:10000000186700209D0100086D4A00084D3C00085B
:10001000694A0008590700085D5500080000000003
:10002000000000000000000000000000E14C00089B
:100030000509000800000000DD4A0008394D0008ED
:10004000B7010008B7010008B7010008B7010008B0
:10005000B7010008B7010008B7010008B7010008A0
:10006000B7010008B7010008B7010008B701000890
:10007000B7010008B70100085D070008B7010008D4
:10008000B7010008B7010008B7010008B701000870
:10009000B7010008B7010008B7010008B701000860
:1000A000B7010008B7010008B7010008B701000850
:1000B000B7010008B7010008114E0008B701000899
:1000C000B7010008B7010008B7010008B701000830
:1000D000E14A00084D550008B7010008B7010008C3
:1000E000B7010008B7010008B7010008B701000810
:1000F000B7010008B7010008B7010008B701000800
:10010000B7010008B7010008B7010008B7010008EF
:10011000B7010008B7010008214E0008B701000828
:10012000B7010008B7010008B7010008B7010008CF
:10013000B7010008B7010008B7010008B7010008BF
:10014000B7010008B7010008B7010008B7010008AF
:10015000B7010008B7010008B7010008B70100089F
:10016000B7010008B7010008B7010008B70100088F
:10017000B7010008B7010008B7010008000000003F
:10018000B7010008B7010008DFF80CD000F0CCFA86
:100190000048004701800008186700200648804793
:1001A00006480047FEE7FEE7FEE7FEE7FEE7FEE75C
:1001B000FEE7FEE7FEE7FEE7FD4D000889010008C7
:1001C0002DE9F05F0546002092469B46884606468C
:1001D000814640241BE0284641464746224600F01F
:1001E000F2F953465A46C01A914110D311461846A7
:1001F000224600F0D9F92D1A67EB01084F46224636
:100200000120002100F0D0F917EB00094E41201E1B
:10021000A4F10104DFDC484631462A464346BDE8E6
:10022000F09FD2B201E000F8012B491EFBD27047CB
:100230000022F6E710B513460A4604461946FFF7B2
:10024000F0FF204610BD2DE9FE4F804681EA0300F5
:10025000C00F0C46009021F0004123F00045B8EBA0
:100260000200A94105D24046214690461C460B4655
:10027000024623F00040104347D0270DC7F30A0081
:10028000C3F30A510290401A019040286BDAC3F37D
:10029000130040F4801B0098924620B10023D2EB5B
:1002A000030A63EB0B0B01985946C0F1400250461C
:1002B00000F07AF906460D4650465946019A00F07C
:1002C00092F910EB08006141002487EA115284EA98
:1002D000E7731A4340D0009A62B3019A012A4FEAA9
:1002E000075215DC001B61EB02014FF0004202EAED
:1002F0000752CDE90042001C41F5801132462B46E1
:1003000000F092F903B0BDE8F08F40462146F9E7CE
:10031000001B61EB0201001C41F5801300185B41DA
:100320002018A2F5001747EB030140EAD570B61973
:100330006D4111E06D084FEA360645EAC0754FEA97
:100340000752001B61EB0201001C41F580114908B6
:100350004FEA30000019514132462B4603B0BDE848
:10036000F04F00F052B90098012240000023D0EB7A
:10037000020263EBE073009821464FEAE074B8EBA9
:10038000000061EB0401E9E783F000435BE781F0E3
:10039000004158E72DE9FE4F81EA030404F00044D0
:1003A00021F0004100944FF0000B23F0004350EA8D
:1003B00001045ED052EA03045BD0C3F30A54C1F3D4
:1003C0000A552C44A4F2F3340194A0FB0254C1F367
:1003D000130141F48011C3F3130343F4801301FBB1
:1003E000024400FB034E840A970A44EA815447EA18
:1003F0008357A4FB076802958D0A05FB07854FEA22
:10040000932C04FB0C542705029D4FEA065847EA3B
:100410001637B5EB08056EEB070C870E920E47EA10
:10042000811742EA8312A7FB0201B6EB0B0164EBD2
:1004300000042B0D43EA0C335E1844EB1C50DA46E3
:100440005146E7FB0201C5F313044FEA0B3343EABD
:1004500014534FEA0432019C43EA0603A4F10C044E
:100460000294009CCDE900B400F0DEF803B0BDE8D2
:10047000F08F00200146F9E72DE9F04D81EA0304F1
:1004800004F0004B21F0004514464FF0000A23F021
:10049000004150EA050220D054EA01021DD0C5F304
:1004A0000A570246C5F31303C1F31300C1F30A56FA
:1004B00040F4801543F48013A7EB0608101BD646C2
:1004C00008F2FD3873EB050002D308F1010801E0E2
:1004D00092185B41B8F1000F03DA00200146BDE835
:1004E000F08D00204FF48011064684460EE0171B65
:1004F00073EB050705D3121B63EB050306434CEAB8
:10050000010C49084FEA300092185B4150EA01079C
:10051000EDD152EA030012D082EA040083EA050119
:10052000084305D0101BAB4106D20122002306E090
:1005300000224FF0004302E06FF0010253101AEB6B
:1005400006004CEB085110EB0A0041EB0B01BDE833
:10055000F04D00F05AB800F0004230F000400AD0F0
:10056000C10D01F56071C0F3160042EA0151C208E5
:1005700040071143704700200146704730B50B46D5
:10058000014600202022012409E021FA02F59D42C3
:1005900005D303FA02F5491B04FA02F52844151E97
:1005A000A2F10102F1DC30BD202A04DB203A00FA7E
:1005B00002F1002070479140C2F1200320FA03F3BA
:1005C000194390407047202A04DB203A21FA02F0B8
:1005D0000021704721FA02F3D040C2F1200291407D
:1005E000084319467047202A06DBCB17203A41FA08
:1005F00002F043EAE07306E041FA02F3D040C2F1B0
:100600002002914008431946704710B5141E73F13B
:10061000000408DA401C41F1000192185B411A43C2
:1006200001D120F0010010BD2DE9F04D92469B460E
:1006300011B1B1FA81F202E0B0FA80F220329046B4
:10064000FFF7B2FF04460F4640EA0A0041EA0B01F9
:1006500053465A46084313D0114653EA010019D0B5
:10066000C8F140025046FFF7AEFF05460E46504621
:1006700059464246FFF798FF084305D0012004E0A1
:1006800020463946BDE8F08D0020054346EAE07675
:100690002C4337430A986305E40AA0EB08000022C4
:1006A000FD0A44EA47540A3002D500200146E9E732
:1006B000010510196941DDE9084500196941BDE8E6
:1006C000F04DA2E7C1F30A52C1F3130140F2FF3328
:1006D00041F480119A4202DA00200146704740F24C
:1006E00033439A42A2F2334202DC5242FFF76BBF1D
:1006F000FFF75ABF30B5041E71F1000404DB4FF060
:100700000044404264EB0101141E73F1000405DB58
:100710001C464FF00043524263EB0403994208BF6A
:10072000904230BD002070471CB509480090094830
:1007300001900546009C06E0E06840F0010394E863
:10074000070098471034AC42F6D3FFF721FD0000B4
:10075000ECE601080CE70108FFE7FEE780B546F28A
:100760007800C2F2000000F0D1FA80BD82B00190A2
:100770000198007810384AF6AB21CAF6AA21A0FBEE
:1007800001100009009000994AF6D810C0F6000048
:10079000405C0199C8650098042807D3FFE70199D8
:1007A0000868042262F30900886506E00199086878
:1007B00040F2FF3290438865FFE70198806D02B0F8
:1007C0007047000086B0059000208DF81300059852
:1007D000806A03900598806910BBFFE70398029038
:1007E00003281BD80299DFE801F0020D02180598D2
:1007F00090F82F00C00720B1FFE701208DF813000B
:10080000FFE70CE00598C06AB0F1C07F04D1FFE7B4
:1008100001208DF81300FFE701E000E0FFE745E06D
:1008200005988069B0F5005F25D1FFE70398019036
:1008300003281ED80199DFE801F002060211012009
:100840008DF8130016E0059890F82F00C00720B12E
:10085000FFE701208DF81300FFE70BE00598C06A61
:10086000B0F1C07F04D1FFE701208DF81300FFE74E
:1008700000E0FFE719E003980090032804D3FFE7A6
:100880000098032804D00EE001208DF813000BE03F
:10089000059890F82F00C00720B1FFE701208DF8E0
:1008A0001300FFE700E0FFE7FFE7FFE79DF8130015
:1008B00006B0704784B003900291019200930398B0
:1008C0000168086820F4802008600098039909688E
:1008D000486003988068402809D1FFE70198039990
:1008E00009688860029803990968C86008E002985E
:1008F000039909688860019803990968C860FFE74F
:1009000004B070477047000072B6FFE7FEE70000D2
:1009100080B586B042F6A000C4F6910004904FF076
:100920004040039040F63400C2F2000090ED000A0F
:100930009FED421AB4EE410AF1EE10FA13DAFFE726
:1009400040F21400C2F2000090ED000A9FED411A3F
:1009500020EE010AB1EE0C1A30EE010A80ED000A19
:100960000068059066E040F63400C2F2000090EDA9
:10097000000A08F0C3F99FED321A20EE010A8DED4E
:10098000020A9DED020A9FED2F1A80EE010A07F080
:10099000C3FDB3EE041A20EE010A9FED2B1A30EED0
:1009A000010AB8EE001A30EE010A8DED010A40F29C
:1009B0001400C2F2000090ED000A9DED011AB6EE9F
:1009C000002A21EE021A20EE020A30EE010A80ED22
:1009D000000A90ED000A9FED1D1AB4EE410AF1EEF7
:1009E00010FA09DAFFE740F21401C2F20001002018
:1009F000C4F20C200860FFE740F21400C2F20000CD
:100A000090ED000A9FED121AB4EE410AF1EE10FAD1
:100A100009DDFFE740F21401C2F200010020C4F238
:100A2000F0200860FFE740F21400C2F20000006806
:100A30000590FFE79DED050A06B080BD77CC2B320F
:100A40000000004BA02891480000BC4200000C426E
:100A50000000F042CDCC4C3F88B0002006900590BD
:100A6000322004908320039001200290FFE7029837
:100A7000B0F5FF7F2BDCFFE7029944F26C00C2F275
:100A8000000000EB810090ED000A20EE000A8DEDE1
:100A9000010A9DED011A9DED060A30EE010A8DED69
:100AA000060A029832280DDBFFE70298832809DC4A
:100AB000FFE79DED011A9DED050A30EE010A8DED6F
:100AC000050AFFE7FFE7029801300290CFE79DEDAE
:100AD000060A30EE000A8DED060A9DED050A30EE9D
:100AE000000A8DED050A9DED060A9FED361AB4EE5B
:100AF000410AF1EE10FA0FDAFFE746F2F810C2F2FF
:100B0000000090ED000A9FED341A20EE010A80EDFE
:100B1000000A0068079051E09DED050A9DED061A58
:100B200080EE010A9FED281A20EE010A8DED000AE1
:100B300046F2F810C2F2000090ED000A9DED001A96
:100B40009FED222A21EE021A9FED212A20EE020AB1
:100B500030EE010A80ED000A90ED000A9FED1D1AAB
:100B6000B4EE410AF1EE10FA0ADAFFE746F2F811A4
:100B7000C2F200014DF20A70C3F623400860FFE79D
:100B800046F2F810C2F2000090ED000A9FED0E1A36
:100B9000B4EE410AF1EE10FA09DDFFE746F2F81172
:100BA000C2F200010020C4F2C8200860FFE746F24C
:100BB000F810C2F2000000680790FFE79DED070AF9
:100BC00008B0704777CC2B320000C8429A99193F81
:100BD000CDCCCC3E0AD7233CCDCC4C3F80B584B0A5
:100BE00002900298806D019000F050FD00900298F4
:100BF00090F8350002280DD0FFE702998020486563
:100C0000FFE70299002081F83400FFE701208DF80A
:100C10000F0055E002980168086820F0160008608F
:100C200002980168486920F0800048610298006CD1
:100C300020B9FFE70298806C38B1FFE7029801689D
:100C4000086820F008000860FFE70298016808685B
:100C500020F001000860FFE7029800680068C00704
:100C6000C8B1FFE700F012FD0099401A062811D321
:100C7000FFE70299202048650299032081F835009A
:100C8000FFE70299002081F83400FFE703208DF888
:100C90000F0015E0E0E70298C16D3F208840019900
:100CA00088600299012081F83500FFE70299002051
:100CB00081F83400FFE7FFE700208DF80F00FFE721
:100CC0009DF80F0004B080BD82B00090009890F8AD
:100CD0003500022807D0FFE70099802048650120F1
:100CE0008DF807000EE00099052081F83500009886
:100CF0000168086820F001000860FFE700208DF817
:100D00000700FFE79DF8070002B0704780B586B086
:100D100005900020039040F21000C2F2000000682D
:100D200048F2B511C1F64E31A0FB0110800A0290C5
:100D30000598806D019001980068049004980599C9
:100D4000C96DC840000700281AD5FFE7059800685C
:100D500000684007002812D5FFE705980168086879
:100D600020F0040008600598C16D082088400199B2
:100D700088600599486D40F001004865FFE7FFE78E
:100D800004980599C96DC840C007A0B1FFE7059850
:100D900000684069000600280CD5FFE70598C16D82
:100DA00001208840019988600599486D40F0020053
:100DB0004865FFE7FFE704980599C96DC8404007FB
:100DC000002814D5FFE70598006800688007002810
:100DD0000CD5FFE70598C16D042088400199886013
:100DE0000599486D40F004004865FFE7FFE7049867
:100DF0000599C96DC840C006002847D5FFE705988A
:100E000000680068000700283FD5FFE70598C16D1E
:100E100010208840019988600598006800684003A8
:100E200000281AD5FFE7059800680068000300282D
:100E300009D4FFE70598006C20B1FFE70598016C25
:100E40008847FFE708E00598806C20B1FFE7059828
:100E5000816C8847FFE7FFE716E0059800680068A7
:100E6000C005002807D4FFE705980168086820F04E
:100E700008000860FFE70598006C20B1FFE70598BF
:100E8000016C8847FFE7FFE7FFE7FFE70498059954
:100E9000C96DC8408006002840F18D80FFE70598A5
:100EA00000680068C006002840F18480FFE70598CC
:100EB000C16D2020884001998860059890F8350020
:100EC000052834D1FFE705980168086820F016006E
:100ED000086005980168486920F08000486105981D
:100EE000006C20B9FFE70598806C38B1FFE70598E2
:100EF0000168086820F008000860FFE70598C16DE8
:100F00003F208840019988600599012081F83500CB
:100F1000FFE70599002081F83400FFE70598006D90
:100F200020B1FFE70598016D8847FFE77BE0059852
:100F300000680068400300281AD5FFE7059800689C
:100F400000680003002809D4FFE70598406C20B131
:100F5000FFE70598416C8847FFE708E00598C06BFC
:100F600020B1FFE70598C16B8847FFE7FFE720E066
:100F7000059800680068C005002811D4FFE70598AF
:100F80000168086820F0100008600599012081F8C8
:100F90003500FFE70599002081F83400FFE7FFE7FF
:100FA0000598C06B20B1FFE70598C16B8847FFE744
:100FB000FFE7FFE7FFE70598406DA0B3FFE705985F
:100FC000406DC00730B3FFE70599052081F8350073
:100FD00005980168086820F001000860FFE70398A1
:100FE000013003900299884201D9FFE707E0FFE74B
:100FF000059800680068C0070028F0D1FFE7059950
:10100000012081F83500FFE70599002081F83400C0
:10101000FFE7FFE70598C06C20B1FFE70598C16CBA
:101020008847FFE7FFE706B080BD000080B586B0C7
:1010300004900020039000F029FB0290049820B94E
:10104000FFE701208DF81700A3E00498406A08B17B
:10105000FFE7FFE70499022081F83500FFE70499D4
:10106000002081F83400FFE704980168086820F048
:1010700001000860FFE7049800680068C00790B1AD
:10108000FFE700F003FB0299401A06280AD3FFE7A6
:101090000499202048650499032081F835008DF8D3
:1010A000170076E0E7E7049800680068039003986B
:1010B00048F23F01CFF210010840039004990091DB
:1010C0004868D1F808C0CB680A6940EA0C001843A8
:1010D00010434A6910438A691043CA691043096A78
:1010E00001430398084303900498406A042808D1F8
:1010F000FFE70499C86A096B01430398084303900A
:10110000FFE703980499096808600498006840693B
:101110000390039820F0070003900498416A039815
:10112000084303900498406A04281AD1FFE7049802
:10113000816A0398084303900498C06A80B1FFE76E
:101140000498FFF73FFB50B1FFE704994020486542
:101150000499012081F835008DF8170019E0FFE7A8
:10116000FFE703980499096848610498FFF7FEFABD
:1011700001900498C16D3F208840019988600499CE
:1011800000204865049A012182F835108DF8170077
:10119000FFE79DF8170006B080BD000080B588B05D
:1011A000069005910492039300208DF80B00069899
:1011B000806D0190FFE7069890F83400012804D173
:1011C000FFE702208DF81F0045E00699012081F815
:1011D0003400FFE7FFE7069890F8350001282BD18F
:1011E000FFE70699022081F835000699002048653E
:1011F00006980599049A039BFFF75CFB0698C16D5E
:101200003F2088400199886006980168086840F08E
:10121000160008600698006C38B1FFE70698016870
:10122000086840F008000860FFE706980168086851
:1012300040F00100086009E0FFE70699002081F80E
:101240003400FFE702208DF80B00FFE79DF80B004C
:101250008DF81F00FFE79DF81F0008B080BD00005B
:1012600080B584B0039000F011FA029003980190C9
:101270000198013048B1FFE740F21800C2F20000C7
:101280000178019808440190FFE7FFE700F0FEF9BC
:101290000299401A0199884201D2FFE7F6E704B0AB
:1012A00080BD00008EB00D900C9100200A90099036
:1012B00008900B90FFE70B980F2800F2CC81FFE716
:1012C0000B99012088400A900C9800680A99084000
:1012D000099009980A99884240F0B881FFE70C9874
:1012E000406800F00300012807D0FFE70C98406831
:1012F00000F0030002282FD1FFE70D9880680890C6
:101300000B984100032000FA01F1089888430890E7
:101310000C98C0680B99490000FA01F1089808433D
:10132000089008980D9988600D98406808900B996E
:10133000012000FA01F10898884308900C98406851
:10134000C0F300100B9900FA01F1089808430890C7
:1013500008980D994860FFE70C98406800F003007A
:10136000032818D0FFE70D98C06808900B9841003B
:10137000032000FA01F10898884308900C988068CF
:101380000B99490000FA01F1089808430890089861
:101390000D99C860FFE70C98406800F00300022830
:1013A00026D1FFE70D980B996FF0030202EA510175
:1013B0000844006A08900B9800F0070081000F2095
:1013C00000FA01F10898884308900C9800690B997D
:1013D00001F00701890000FA01F10898084308901C
:1013E00008980D990B9B02EA530211440862FFE72B
:1013F0000D98006808900B984100032000FA01F155
:101400000898884308900C98406800F003000B99F6
:10141000490000FA01F108980843089008980D99CE
:1014200008600C9880798007002800F00E81FFE7A3
:10143000FFE70020079043F64400C4F20200016871
:1014400041F480410160006800F4804007900798F3
:10145000FFE70B9820F0030043F60801C4F20101F6
:10146000405808900B9800F0030081000F2000FA0C
:1014700001F10898884308900D980021C4F20201F8
:10148000884203D1FFE7002006905EE00D9840F20D
:101490000041C4F20201884203D1FFE70120059018
:1014A00050E00D9840F60001C4F20201884203D1D9
:1014B000FFE70220049042E00D9840F60041C4F29C
:1014C0000201884203D1FFE70320039034E00D9826
:1014D00041F20001C4F20201884203D1FFE7042077
:1014E000029026E00D9841F20041C4F202018842C8
:1014F00003D1FFE70520019018E00D9841F60001A7
:10150000C4F20201884203D1FFE7062000900AE0FE
:101510000D9941F60042C4F202020820914208BF30
:1015200007200090FFE700980190FFE701980290E4
:10153000FFE702980390FFE703980490FFE7049801
:101540000590FFE705980690FFE70698C0B20B9953
:1015500001F00301890000FA01F10898084308909E
:1015600008980B9921F0030143F60802C4F2010226
:10157000885043F60840C4F20100006808900999B9
:101580000898884308900C988079C006002805D5F3
:10159000FFE70999089808430890FFE7089843F681
:1015A0000841C4F20101086043F60C40C4F2010096
:1015B0000068089009990898884308900C988079E9
:1015C0008006002805D5FFE7099908980843089088
:1015D000FFE7089843F60C41C4F20101086043F6A6
:1015E0000440C4F2010000680890099908988843F3
:1015F00008900C9880798007002805D5FFE70999A5
:10160000089808430890FFE7089843F60441C4F29D
:101610000101086043F60040C4F201000068089030
:1016200009990898884308900C988079C00728B1D8
:10163000FFE70999089808430890FFE7089843F6E0
:101640000041C4F201010860FFE7FFE7FFE70B98E4
:1016500001300B902FE60EB07047000082B0019071
:10166000ADF802108DF801209DF8010028B1FFE7C8
:10167000BDF802000199886105E0BDF80200000490
:1016800001998861FFE702B07047000046F20C3014
:10169000C2F200000068704780B588B007900798D4
:1016A0000068806806900798016843F60002C4F25B
:1016B000000244F20800C4F20000914204BF43F269
:1016C0000840C4F200000068059007980068406870
:1016D00004900798016844F20400C4F200009142AB
:1016E00004BF43F20440C4F200000068039007986E
:1016F0004068B0F5007F06D0FFE7079840680028F3
:1017000040F09580FFE706988007002809D5FFE79D
:1017100004980006002804D5FFE7079802F006FBAE
:10172000FFE70598C00748B1FFE703984006002887
:1017300004D5FFE7079802F0B3FAFFE705984006E3
:10174000002839D5FFE703988006002834D5FFE745
:101750000798006843F60002C4F2000244F2040154
:10176000C4F20001904204BF43F20441C4F20001FC
:10177000086820F06000086007980168486820F059
:10178000A0004860FFE70020029007980068C0684A
:10179000029007980068806802900298FFE7079916
:1017A000012081F841000799486C40F0020048642C
:1017B000079800F0C3F8FFE706980007002835D522
:1017C000FFE704988006002830D5FFE707980168F6
:1017D000486820F0A00048600798006843F60002BF
:1017E000C4F2000244F20401C4F20001904204BFBA
:1017F00043F20441C4F20001086820F06000086070
:10180000FFE7002001900798006880680190019828
:10181000FFE70799012081F841000799486C40F0E3
:1018200004004864079800F089F8FFE77FE0059816
:101830008007002809D5FFE703980006002804D593
:10184000FFE7079802F09AFAFFE70698C00748B149
:10185000FFE704984006002804D5FFE7079802F048
:10186000F7F9FFE70698400600282DD5FFE7049812
:101870008006002828D5FFE707980168486820F00F
:10188000600048600798006843F60002C4F2000256
:1018900044F20401C4F20001904204BF43F2044147
:1018A000C4F20001086820F0A000086007994FF01A
:1018B000010081F841000799486C40F0020048643B
:1018C000079800F03BF8FFE70598000700282DD5A2
:1018D000FFE703988006002828D5FFE707980068EF
:1018E00043F60002C4F2000244F20401C4F2000113
:1018F000904204BF43F20441C4F20001086820F0A2
:10190000A000086007980168486820F060004860FF
:1019100007994FF0010081F841000799486C40F0A9
:1019200004004864079800F009F8FFE7FFE708B0F3
:1019300080BD000081B0009001B0704781B0009080
:1019400001B0704780B582B001900198416B884723
:1019500002B080BD80B588B00690069820B9FFE738
:1019600001208DF81F003AE1069890F8410070B907
:10197000FFE70699002081F84000069943F69D6034
:10198000C0F600004863069800F02EF9FFE70699BC
:10199000022081F8410006990A68D16940F6BF73B8
:1019A0009943D1610699096808620698406902283E
:1019B00064D0FFE70698C06818B9FFE710200390CD
:1019C00002E020200390FFE706988068202804D8D2
:1019D000FFE7039840000390FFE7012000F0A0FB21
:1019E000019006980069B0F5007F23D1FFE70698C3
:1019F000C06878B1FFE7019803998900B0FBF1F066
:101A000000EB8000400006994969B0FBF1F0053019
:101A100002900EE001980399C900B0FBF1F000EBD1
:101A20008000400006994969B0FBF1F00530029052
:101A3000FFE70DE001980399B0FBF1F000EB8000A7
:101A4000400006994969B0FBF1F005300290FFE7CC
:101A500002984CF6CD41CCF6CC41A0FB0110C00859
:101A60000290029800F00100049002980499401A34
:101A70004008059004980002049004E002200590BC
:101A800000200490FFE70598022805D3FFE705989A
:101A9000B0F5807F09D3FFE70699486C40F010004D
:101AA000486401208DF81F0099E00598049A069B70
:101AB00019681B691A431043086206980068C069D8
:101AC00040F6BF7120EA0102069B19685868D3F8F6
:101AD00008E0D3F80CC040EA0E0040EA0C009B6915
:101AE0001843104340F40060C8610698006A01285A
:101AF0006BD1FFE7069941F29960C0F60000486398
:101B00000698016843F60002C4F2000244F21C0089
:101B1000C4F200009142034604BF43F21C43C4F2E6
:101B20000003196840F6BF7C21EA0C011960069990
:101B3000096844F22003C4F20003914204BF43F257
:101B40002043C4F200034FF00201196006990968AE
:101B5000914204BF43F21C40C4F200000068ADF89B
:101B6000020006984068B0F5007F04D0FFE70698B1
:101B7000406820B9FFE74FF48070029002E0002037
:101B80000290FFE7029806998B68CA688969184332
:101B900010430843BDF80210084340F40060ADF85C
:101BA0000200BDF8020006990A6843F60003C4F279
:101BB000000344F21C01C4F200019A4204BF43F244
:101BC0001C41C4F200010860FFE706990020486448
:101BD000069A012182F841108DF81F00FFE79DF859
:101BE0001F0008B080BD000080B594B013900020A5
:101BF00006901290119010900F900E900D900C90F6
:101C00000B900A901398006843F60001C4F200019B
:101C1000884240F0A180FFE701200A90C0200B908D
:101C200002200C900AA800F0DFFA18B1FFE7FEF7D7
:101C30006BFEFFE7FFE70020099043F64000C4F287
:101C40000200016841F480410160006800F48040B6
:101C500009900998FFE7FFE70020089043F630005D
:101C6000C4F20200016841F004010160006800F064
:101C7000040008900898FFE7FFE70020079043F66C
:101C80003000C4F20200016841F002010160006806
:101C900000F0020007900798FFE708200E9002204E
:101CA00001900F9000200490109011900520029058
:101CB000129040F60000C4F202000EA90391FFF753
:101CC000F1FA019B02980399049A4FF4A05CCDF8B5
:101CD00038C00F9310921192129040F20040C4F25B
:101CE0000200FFF7DFFA049946F27800C2F2000022
:101CF000059046F25802C4F202020260416081601F
:101D0000C1604FF4806202614FF4805242614FF42F
:101D1000804282614FF48072C2614FF440320262AD
:101D20004162FFF783F918B1FFE7FEF7EDFDFFE72A
:101D3000FFE7139846F27801C2F20001C1631398DD
:101D40008863FFE7242000900321002200F0C6F9F9
:101D5000009800F0B9F9FFE714B080BD80B586B0F7
:101D600004900391ADF80A20039820B1FFE7BDF875
:101D70000A0020B9FFE701208DF81700B4E00498AD
:101D800090F84100012804D0FFE702208DF81700E9
:101D9000AAE0FFE7049890F84000012804D1FFE78B
:101DA00002208DF817009FE00499012081F840007F
:101DB000FFE7FFE70499042081F84100049900201F
:101DC000486403980499C86204980068C06900F0E8
:101DD000070001900198032804D0FFE70198052827
:101DE0000BD1FFE7BDF80A00400004990886BDF852
:101DF0000A0040000499488608E0BDF80A000499EA
:101E00000886BDF80A0004994886FFE70498C16B6C
:101E100043F68560C0F6000008640498C16B43F681
:101E20004960C0F60000C8630498C16B43F60960BE
:101E3000C0F60000C86404980068C06900F44070EF
:101E4000B0F5407F0ED1FFE7FFE700200090049837
:101E50000068C0680090049800688068009000984E
:101E6000FFE7FFE7049B1968DA6AD86B0C311B8E19
:101E7000FFF794F998B1FFE70499486C40F0080027
:101E800048640499012081F84100FFE7049900208B
:101E900081F84000FFE701208DF8170024E0FFE7FC
:101EA0000499002081F84000FFE70498006840682A
:101EB000C00738B9FFE704980168486840F001009E
:101EC0004860FFE704980068C0694005002807D40F
:101ED000FFE704980168C86940F48060C861FFE7C3
:101EE00000208DF81700FFE79DF8170006B080BDB1
:101EF00082B001900198006843F60001C4F200012D
:101F000088424CD1FFE741F24801C2F20001086863
:101F10000130086041F23801C2F200010868000295
:101F2000496800EB112000909DF80200000600288F
:101F300009D5FFE7009840F07F4046F21031C2F229
:101F40000001086006E0009846F21031C2F200017C
:101F50000860FFE746F21030C2F20000016842F26A
:101F60004C00C2F2000003885A1C028041F24C026D
:101F7000C2F2000242F823100088B0F5806F0DDB3A
:101F8000FFE742F24C01C2F200010020088044F257
:101F90006801C2F2000101200870FFE7FFE702B00C
:101FA0007047000081B0009001B0704781B0009090
:101FB00001B0704740F21800C2F20000027846F209
:101FC0000C31C2F20001086810440860704700003C
:101FD00080B582B043F60041C4F20201086840F4C3
:101FE00000700860086840F480600860086840F489
:101FF00080700860032000F08BF80020019000F052
:1020000005F800F03BF8019802B080BD80B582B0C1
:10201000009040F21000C2F20000006840F2180187
:10202000C2F200010A784FF47A71B1FBF2F1B0FB11
:10203000F1F000F025FF20B1FFE701208DF8070047
:1020400018E000980F280DD8FFE700994FF0FF30F7
:10205000002200F043F8009840F21C01C2F2000197
:10206000086003E001208DF8070003E000208DF8F0
:102070000700FFE79DF8070002B080BD82B0FFE7D0
:102080000020019043F64400C4F20200016841F4CC
:1020900080410160006800F4804001900198FFE7F2
:1020A000FFE70020009043F64000C4F20200016800
:1020B00041F080510160006800F08050009000986D
:1020C000FFE702B07047000080B582B08DF80700CE
:1020D0009DF9070003F044FA02B080BD80B586B0D8
:1020E0008DF81700049103920020029003F050FA3B
:1020F00002909DF91700019002980499039A02F04A
:10210000B7FC0146019803F04BFA06B080BD000011
:1021100080B582B00190019803F064FA02B080BDEE
:1021200086B00590002004900390029001900598DD
:10213000012854D1FFE743F60800C4F2020000680A
:1021400000F4000002900298009058B1FFE7009858
:10215000B0F5000F3FD1FFE748F20000C0F2BB002E
:1021600004903BE043F60400C4F202000068400221
:1021700000280FD5FFE743F60400C4F20200006810
:1021800000F03F0141F20020C0F27A00B0FBF1F014
:1021900003900EE043F60400C4F20200006800F071
:1021A0003F0142F20040C0F2F400B0FBF1F00390B6
:1021B000FFE7039843F68401C4F202010A68C2F300
:1021C00088125043019001980968C1F30271B0FB75
:1021D000F1F0049002E000200490FFE700E0FFE748
:1021E000049806B07047000080B586B004900020C7
:1021F000039002900498006800F00100012806D0C6
:10220000FFE704980078400700284ED5FFE76821D3
:10221000C4F2472100200860FFF738FA0390FFE777
:1022200043F60000C4F20200006800F000610020E4
:10223000B0EBD16F0CD0FFE7FFF728FA0399401AF3
:10224000032804D3FFE703208DF81700E4E0E7E755
:10225000049948688968800140EA017043F6840166
:10226000C4F2020108606821C4F24721012008601D
:10227000FFF70CFA0390FFE743F60000C4F20200F8
:10228000006800F000610020B0EBD16F0CD1FFE7D7
:10229000FFF7FCF90399401A032804D3FFE7032052
:1022A0008DF81700B8E0E7E7FFE7049800788007AB
:1022B000002840F1AD80FFE7FFE70020019043F6E2
:1022C0004000C4F20200016841F0805101600068E2
:1022D00000F0805001900198FFE747F20001C4F23E
:1022E0000001086840F480700860FFF7CFF90390A0
:1022F000FFE747F20000C4F200000068C0050028B4
:102300000CD4FFE7FFF7C2F90399401A032804D35E
:10231000FFE703208DF817007EE0EAE743F6700040
:10232000C4F20200006800F4407002900298002895
:102330003ED0FFE702980499C96801F440718842D1
:1023400036D0FFE743F67000C4F20200016821F4C2
:102350004071029140F64062C4F2472201211160AF
:1023600000211160029901600068C007F8B1FFE721
:10237000FFF78CF90390FFE743F67000C4F2020008
:10238000006800F002010020B0EB510F0ED1FFE712
:10239000FFF77CF90399401A41F28931884204D34E
:1023A000FFE703208DF8170036E0E5E7FFE7FFE7DA
:1023B000FFE70498C06800F44070B0F5407F11D189
:1023C000FFE743F60801C4F20201086820F4F810A0
:1023D000049AD2684FF6FF43C0F6FF731A401043C9
:1023E000086008E043F60801C4F20201086820F41E
:1023F000F8100860FFE70498C2686FF31F3243F6D5
:102400007001C4F20201086810430860FFE7FFE7AB
:1024100000208DF81700FFE79DF8170006B080BD7B
:1024200080B584B002900191029820B9FFE70120A5
:102430008DF80F0021E1019843F60041C4F202013A
:10244000096801F00701884212D9FFE7019943F6B4
:102450000040C4F202000170006800F0070001991A
:10246000884204D0FFE701208DF80F0005E1FFE767
:1024700002980078800700282AD5FFE702980078A4
:102480004007002809D5FFE743F60801C4F202011E
:10249000086840F4E0500860FFE702980078000701
:1024A000002809D5FFE743F60801C4F202010868D5
:1024B00040F460400860FFE743F60801C4F20201FF
:1024C000086820F0F000029A926810430860FFE765
:1024D00002980078C00700286ED0FFE70298406895
:1024E000012811D1FFE743F60000C4F202000068A2
:1024F00000F400310020B0EB514F04D1FFE7012080
:102500008DF80F00B9E02CE002984068022805D051
:10251000FFE702984068032811D1FFE743F6000067
:10252000C4F20200006800F000710020B0EB516FAF
:1025300004D1FFE701208DF80F009EE010E043F684
:102540000000C4F20200006800F002010020B0EBBD
:10255000510F04D1FFE701208DF80F008DE0FFE758
:10256000FFE743F60801C4F20201086820F0030007
:10257000029A526810430860FFF788F80090FFE75E
:1025800043F60800C4F20200006800F00C00029953
:102590004968B0EB810F0ED0FFE7FFF777F800999D
:1025A000401A41F28931884204D3FFE703208DF8B5
:1025B0000F0062E0E4E7FFE7019843F60041C4F250
:1025C0000201096801F00701884212D2FFE7019970
:1025D00043F60040C4F202000170006800F00700FA
:1025E0000199884204D0FFE701208DF80F0044E0F4
:1025F000FFE702980078400700280CD5FFE743F674
:102600000801C4F20201086820F4E050029AD2687E
:1026100010430860FFE702980078000700280DD5F6
:10262000FFE743F60801C4F20201086820F46040A5
:10263000029A126940EAC2000860FFE700F04CF815
:1026400043F60801C4F202010968C9B20A0949F255
:10265000F071C0F60001895CC84040F21001C2F27E
:102660000001086040F21C00C2F200000068FFF7A1
:10267000CDFC00208DF80F00FFE79DF80F0004B09F
:1026800080BD000040F21000C2F2000000687047F8
:1026900080B5FFF7F7FF43F60801C4F202010968AD
:1026A000C1F3822249F60001C0F60001895CC840EE
:1026B00080BD000080B5FFF7E5FF43F60801C4F2D6
:1026C0000201096889B24A0B49F60001C0F600010F
:1026D000895CC84080BD000080B586B000200590B0
:1026E00004900390029043F60800C4F202000068D0
:1026F00000F00C000146019140B1FFE70198042869
:102700000AD0FFE7019808280CD04FE042F20040C1
:10271000C0F2F40002904FE041F20020C0F27A00D3
:10272000029049E043F60400C4F20200016801F09F
:102730003F01059100684002002813D5FFE743F6EA
:102740000400C4F202000068C0F3881041F20021C6
:10275000C0F27A01A0FB0101059A0023FDF730FDCC
:10276000049012E043F60400C4F202000068C0F3D3
:10277000881042F20041C0F2F401A0FB0101059A69
:102780000023FDF71DFD0490FFE743F60400C4F2AB
:102790000200006800F44031022000EBD1300390C9
:1027A00004980399B0FBF1F0029005E042F200407A
:1027B000C0F2F4000290FFE7029806B080BD00006E
:1027C00080B586B00490049820B9FFE701208DF809
:1027D000170050E304980078C007002800F0A58097
:1027E000FFE743F60800C4F20200006800F00C00A6
:1027F000042813D0FFE743F60800C4F20200006883
:1028000000F00C0008281ED1FFE743F60400C4F2D4
:10281000020000684002002815D5FFE743F60000DB
:10282000C4F20200006800F400310020B0EB514F08
:1028300008D0FFE70498406820B9FFE701208DF831
:10284000170018E370E0FFE704984068B0F5803F98
:1028500009D1FFE743F60001C4F20201086840F421
:102860008030086020E004984068B0F5A02F0DD1BA
:10287000FFE743F60001C4F20201086840F480203B
:102880000860086840F4803008600CE043F60001FE
:10289000C4F20201086820F480300860086820F45F
:1028A00080200860FFE7FFE7FFE704984068E8B191
:1028B000FFE7FEF7EBFE0390FFE743F60000C4F2EC
:1028C0000200006800F400310020B0EB514F0CD141
:1028D000FFE7FEF7DBFE0399401A652804D3FFE704
:1028E00003208DF81700C6E2E7E71CE0FEF7CEFEF6
:1028F0000390FFE743F60000C4F20200006800F412
:1029000000310020B0EB514F0CD0FFE7FEF7BEFEC8
:102910000399401A652804D3FFE703208DF81700B8
:10292000A9E2E7E7FFE7FFE7FFE704980078800701
:10293000002840F19680FFE743F60800C4F2020049
:10294000006810F00C0F13D0FFE743F60800C4F244
:102950000200006800F00C0008282CD1FFE743F6C5
:102960000400C4F2020000684002002823D4FFE7FC
:1029700043F60000C4F20200006800F002010020EB
:10298000B0EB510F09D0FFE70498C068012804D0CC
:10299000FFE701208DF817006DE243F60001C4F255
:1029A0000201086820F0F800049A126940EAC200A7
:1029B0000860FFE754E00498C06870B3FFE70021A7
:1029C000C4F2472101200860FEF760FE0390FFE794
:1029D00043F60000C4F20200006800F0020100208B
:1029E000B0EB510F0CD1FFE7FEF750FE0399401AF0
:1029F000032804D3FFE703208DF817003BE2E7E745
:102A000043F60001C4F20201086820F0F800049ABD
:102A1000126940EAC200086021E00021C4F24721A7
:102A200000200860FEF732FE0390FFE743F6000047
:102A3000C4F20200006800F002010020B0EB510F68
:102A40000CD0FFE7FEF722FE0399401A032804D3B7
:102A5000FFE703208DF817000DE2E7E7FFE7FFE748
:102A6000FFE704980078000700284BD5FFE704989B
:102A7000406918B3FFE740F68061C4F247210120A6
:102A80000860FEF703FE0390FFE743F67400C4F20C
:102A90000200006800F002010020B0EB510F0CD1E1
:102AA000FFE7FEF7F3FD0399401A032804D3FFE77D
:102AB00003208DF81700DEE1E7E722E040F68061B1
:102AC000C4F2472100200860FEF7E0FD0390FFE715
:102AD00043F67400C4F20200006800F00201002016
:102AE000B0EB510F0CD0FFE7FEF7D0FD0399401A71
:102AF000032804D3FFE703208DF81700BBE1E7E7C5
:102B0000FFE7FFE7049800784007002840F1CE80F7
:102B1000FFE700208DF8070043F64000C4F20200F2
:102B20000068C000002815D4FFE7FFE700200090F0
:102B300043F64000C4F20200016841F08051016098
:102B4000006800F0805000900098FFE701208DF8A9
:102B50000700FFE747F20000C4F200000068C0056C
:102B6000002822D4FFE747F20001C4F20001086800
:102B700040F480700860FEF789FD0390FFE747F29C
:102B80000000C4F200000068C00500280CD4FFE774
:102B9000FEF77CFD0399401A032804D3FFE70320C6
:102BA0008DF8170067E1EAE7FFE7FFE70498806820
:102BB000012809D1FFE743F67001C4F20201086859
:102BC00040F0010008601FE00498806805280DD1DE
:102BD000FFE743F67001C4F20201086840F0040008
:102BE0000860086840F0010008600CE043F67001DE
:102BF000C4F20201086820F001000860086820F0B3
:102C000004000860FFE7FFE7FFE704988068F8B179
:102C1000FFE7FEF73BFD0390FFE743F67000C4F2C9
:102C20000200006800F002010020B0EB510F0ED14D
:102C3000FFE7FEF72BFD0399401A41F289318842E4
:102C400004D3FFE703208DF8170014E1E5E71EE049
:102C5000FEF71CFD0390FFE743F67000C4F202008C
:102C6000006800F002010020B0EB510F0ED0FFE72A
:102C7000FEF70CFD0399401A41F28931884204D3D2
:102C8000FFE703208DF81700F5E0E5E7FFE79DF883
:102C90000700012809D1FFE743F64001C4F2020111
:102CA000086820F080500860FFE7FFE7049880691B
:102CB000002800F0DC80FFE743F60800C4F20200C1
:102CC000006800F00C00082800F08580FFE70498F9
:102CD000806902285CD1FFE76021C4F2472100200F
:102CE0000860FEF7D3FC0390FFE743F60000C4F250
:102CF0000200006800F000710020B0EB516F0CD0B2
:102D0000FFE7FEF7C3FC0399401A032804D3FFE74B
:102D100003208DF81700AEE0E7E70499C869D1F801
:102D200020C04B6A8A6A40EA0C0040EA8310D20352
:102D30004FF6FF739A43A2F580321043C96A40EA06
:102D4000016043F60401C4F2020108606021C4F28C
:102D5000472101200860FEF799FC0390FFE743F646
:102D60000000C4F20200006800F000710020B0EB27
:102D7000516F0CD1FFE7FEF789FC0399401A032835
:102D800004D3FFE703208DF8170074E0E7E721E0A4
:102D90006021C4F2472100200860FEF777FC039011
:102DA000FFE743F60000C4F20200006800F0007183
:102DB0000020B0EB516F0CD0FFE7FEF767FC0399E2
:102DC000401A032804D3FFE703208DF8170052E0D0
:102DD000E7E7FFE74AE004988069012804D1FFE7AC
:102DE00001208DF8170046E043F60400C4F202000B
:102DF0000068029004988069012831D0FFE70298AA
:102E000000F480000499C969884229D1FFE702983B
:102E100000F03F000499096A884221D1FFE7029837
:102E200047F6C07108400499496AB0EB811F17D179
:102E3000FFE7029800F440300499896AC9034FF60D
:102E4000FF729143A1F58031884209D1FFE70298D2
:102E500000F070600499C96AB0EB016F04D0FFE71D
:102E600001208DF8170006E0FFE7FFE7FFE70020ED
:102E70008DF81700FFE79DF8170006B080BD000031
:102E800080B582B00190019801F02CFF02B080BDA6
:102E900081B0009001B0704781B0009001B07047E0
:102EA00085B003900291FFE7039890F83C00012859
:102EB00004D1FFE702208DF813007EE00399012082
:102EC00081F83C00FFE7FFE70399022081F83D000D
:102ED000039800684068019003980068806800903B
:102EE000019820F070000190029801680198084351
:102EF00001900198039909684860039800680021CF
:102F0000C4F2010188423CD0FFE703980068B0F1A9
:102F1000804F36D0FFE70398006840F20041C4F2CA
:102F2000000188422DD0FFE70398006840F60001B9
:102F3000C4F20001884224D0FFE70398006840F6FD
:102F40000041C4F2000188421BD0FFE703980068EB
:102F500040F20041C4F20101884212D0FFE7039819
:102F6000006844F20001C4F20101884209D0FFE781
:102F70000398006841F60001C4F2000188420ED1B6
:102F8000FFE7009820F080000090029841680098C8
:102F9000084300900098039909688860FFE7039947
:102FA000012081F83D00FFE70399002081F83C00F3
:102FB000FFE700208DF81300FFE79DF8130005B030
:102FC0007047000080B582B00090009820B9FFE7FC
:102FD00001208DF807003FE0009890F83D0040B9CF
:102FE000FFE70099002081F83C00009800F038F8D5
:102FF000FFE70099022081F83D00009951F8040B89
:1030000001F016FF0099012081F84600FFE70099C2
:10301000012081F83E00009981F83F00009981F875
:103020004000009981F84100FFE7FFE70099012087
:1030300081F84200009981F84300009981F844002A
:10304000009981F84500FFE70099012081F83D00D3
:1030500000208DF80700FFE79DF8070002B080BD53
:1030600080B586B005900598006840F60001C4F26E
:10307000000188421BD1FFE7FFE70020049043F6E0
:103080004000C4F20200016841F0040101600068E0
:1030900000F0040004900498FFE71E200290042131
:1030A0000022FFF71BF80298FFF70EF824E00598BE
:1030B000006841F20001C4F2000188421BD1FFE721
:1030C000FFE70020039043F64000C4F202000168CD
:1030D00041F010010160006800F0100003900398B7
:1030E000FFE73620019004210022FEF7F7FF019848
:1030F000FEF7EAFFFFE7FFE706B080BD83B001906F
:10310000019890F83D00012804D0FFE701208DF8D8
:103110000B006AE00199022081F83D0001980168E6
:10312000C86840F00100C860019800680021C4F23E
:10313000010188423CD0FFE701980068B0F1804F60
:1031400036D0FFE70198006840F20041C4F2000168
:1031500088422DD0FFE70198006840F60001C4F2D4
:103160000001884224D0FFE70198006840F6004142
:10317000C4F2000188421BD0FFE70198006840F2CA
:103180000041C4F20101884212D0FFE701980068B3
:1031900044F20001C4F20101884209D0FFE701981E
:1031A000006841F60001C4F20001884212D1FFE735
:1031B00001980068806800F00700009000980628D9
:1031C00007D0FFE701980168086840F00100086037
:1031D000FFE706E001980168086840F00100086018
:1031E000FFE700208DF80B00FFE79DF80B0003B010
:1031F0007047000080B586B00490039100208DF8E0
:103200000B00FFE7049890F83C00012804D1FFE789
:1032100002208DF81700ABE00499012081F83C00F2
:10322000FFE7FFE70499022081F83D000498006859
:1032300080680190019820F077000190019820F4B7
:103240007F4001900198049909688860039800689C
:103250000090002872D0FFE7009810286ED0FFE79A
:10326000009820286AD0FFE70098302866D0FFE752
:103270000098402855D0FFE70098502837D0FFE746
:103280000098602840D0FFE7009870280BD0FFE737
:103290000098B0F5805F05D0FFE70098B0F5005FBB
:1032A00016D052E055E004980068039B5A6899686C
:1032B000DB6801F08FFE0498006880680190019837
:1032C00040F077000190019804990968886040E017
:1032D00004980068039B5A689968DB6801F07AFEDD
:1032E00004980168886840F48040886031E0049860
:1032F0000068039A5168D26801F09CFE0498006847
:10330000502101F081FE24E004980068039A51687E
:10331000D26801F0B7FE04980068602101F074FEE5
:1033200017E004980068039A5168D26801F082FEA1
:1033300004980068402101F067FE0AE004980068E4
:103340000399096801F060FE03E001208DF80B008D
:10335000FFE70499012081F83D00FFE70499002070
:1033600081F83C00FFE79DF80B008DF81700FFE7A0
:103370009DF8170006B080BD81B0009001B0704785
:1033800080B584B0039003980068C06802900398E9
:103390000068006901909DF804008007002824D58A
:1033A000FFE79DF80800800700281DD5FFE7039878
:1033B00001686FF002000861039901200877039803
:1033C00000688069800720B1FFE70398FFF7D4FF0A
:1033D00006E0039800F0E2F8039800F0E3F8FFE756
:1033E000039900200877FFE7FFE79DF804004007F6
:1033F000002825D5FFE79DF80800400700281ED5C6
:10340000FFE7039801686FF0040008610399022048
:10341000087703980068806910F4407F04D0FFE7C4
:103420000398FFF7A9FF06E0039800F0B7F80398A8
:1034300000F0B8F8FFE7039900200877FFE7FFE7FF
:103440009DF804000007002824D5FFE79DF8080038
:10345000000700281DD5FFE7039801686FF00800FA
:10346000086103990420087703980068C069800701
:1034700020B1FFE70398FFF77FFF06E0039800F015
:103480008DF8039800F08EF8FFE703990020087785
:10349000FFE7FFE79DF80400C006002825D5FFE7F9
:1034A0009DF80800C00600281ED5FFE703980168B4
:1034B0006FF01000086103990820087703980068EE
:1034C000C06910F4407F04D0FFE70398FFF754FF72
:1034D00006E0039800F062F8039800F063F8FFE755
:1034E000039900200877FFE7FFE79DF80400C00775
:1034F00078B1FFE79DF80800C00748B1FFE70398DF
:1035000001686FF001000861039800F04FF8FFE7D1
:10351000FFE79DF804000006002810D5FFE79DF89E
:1035200008000006002809D5FFE7039801686FF03E
:10353000800008610398FFF7ABFCFFE7FFE79DF809
:1035400004004006002810D5FFE79DF8080040065B
:10355000002809D5FFE7039801686FF04000086173
:10356000039800F03BF8FFE7FFE79DF804008006B2
:10357000002810D5FFE79DF808008006002809D52F
:10358000FFE7039801686FF0200008610398FFF7D8
:1035900083FCFFE7FFE704B080BD000081B000902E
:1035A00001B0704781B0009001B0704781B00090C9
:1035B0000098006840F60001C4F20001884201D181
:1035C000FFE7FFE70098006841F20001C4F2000144
:1035D000884201D1FFE7FFE701B0704781B000905A
:1035E00001B0704782B00190ADF8021002B0704790
:1035F00081B0009001B0704780B592B011901198E1
:1036000000680068109011980068C0680F901198C9
:10361000006840690E9000200D900C90109800F00A
:103620000F000D900D9888B9FFE79DF840008006C7
:1036300000280AD5FFE79DF83C008006002804D545
:10364000FFE7119801F0B4FD02E2FFE70D980028B2
:1036500000F0C280FFE79DF83800C00738B9FFE7E7
:10366000BDF83C0010F4907F00F0B680FFE79DF8B5
:103670004000C00758B1FFE79DF83D00C00730B1DA
:10368000FFE71199486C40F001004864FFE79DF89E
:103690004000400700280BD5FFE79DF83800C00721
:1036A00030B1FFE71199486C40F002004864FFE731
:1036B0009DF84000800700280BD5FFE79DF83800F3
:1036C000C00730B1FFE71199486C40F0040048642E
:1036D000FFE79DF840000007002811D5FFE79DF89F
:1036E0003C008006002805D4FFE79DF83800C0079D
:1036F00030B1FFE71199486C40F008004864FFE7DB
:103700001198406C002866D0FFE79DF840008006C5
:1037100000280AD5FFE79DF83C008006002804D564
:10372000FFE7119801F044FDFFE711980068406938
:10373000C0F380100C901198406C0007002804D44E
:10374000FFE70C9800283ED0FFE7119801F0D2FC6B
:10375000119800684069400600282FD5FFE7FFE771
:10376000FFE71198006850E8050F20F040000B902B
:10377000FFE70B991198026842E805100028F0D184
:10378000FFE7FFE71198C06B98B1FFE71198C16B95
:1037900045F2D900C0F6000008651198C06BFDF72E
:1037A00093FA28B1FFE71198C06B016D8847FFE7D6
:1037B00003E01198FFF71CFFFFE703E01198FFF704
:1037C00017FFFFE706E01198FFF712FF119900209D
:1037D0004864FFE7FFE73BE11198006B012840F0E8
:1037E0001781FFE79DF84000C006002840F11081D6
:1037F000FFE79DF83C00C006002840F10981FFE783
:10380000FFE700200A901198006800680A9011985C
:10381000006840680A900A98FFE7119800684069BC
:103820004006002840F19A80FFE71198C06B0068BD
:103830004068ADF82600BDF82600002875D0FFE7E7
:10384000BDF826001199898D88426EDAFFE7BDF830
:1038500026001199C8851198C06BC069B0F5807FAA
:1038600058D0FFE7FFE7FFE71198006850E8030F23
:1038700020F480700890FFE708991198026842E8E8
:1038800003100028F0D1FFE7FFE7FFE7FFE71198FB
:10389000006850E8050F20F001000790FFE7079946
:1038A0001198026842E805100028F0D1FFE7FFE711
:1038B000FFE7FFE71198006850E8050F20F040008F
:1038C0000690FFE706991198026842E80510002863
:1038D000F0D1FFE7FFE71199202081F8420011990C
:1038E00000200863FFE7FFE71198006850E8030F26
:1038F00020F010000590FFE705991198026842E852
:1039000003100028F0D1FFE7FFE71198C06BFDF727
:1039100065F9FFE71199022048631198818DC28DE6
:10392000891A89B2FFF75EFE17E0BDF826001199EB
:10393000898D884210D1FFE71198C06BC069B0F53E
:10394000807F08D1FFE71199022048631198818D8B
:10395000FFF748FEFFE7FFE7FFE779E01199888D61
:10396000C98D401AADF812001198C08D00284ED0B4
:10397000FFE7BDF81200002849D0FFE7FFE7FFE7A7
:103980001198006850E8030F20F490700390FFE74F
:1039900003991198026842E803100028F0D1FFE76C
:1039A000FFE7FFE7FFE71198006850E8050F20F0F8
:1039B00001000290FFE702991198026842E80510A1
:1039C0000028F0D1FFE7FFE71199202081F842009D
:1039D000119900200863FFE7FFE71198006850E89D
:1039E000030F20F010000190FFE701991198026881
:1039F00042E803100028F0D1FFE7FFE71199022009
:103A000048631198BDF81210FFF7ECFDFFE71FE0C7
:103A10009DF84000000600280AD5FFE79DF83C000D
:103A20000006002804D5FFE7119801F045FD0FE0DE
:103A30009DF84000400600280AD5FFE79DF83C00AD
:103A40004006002804D5FFE7119801F09DFBFFE731
:103A500012B080BD80B582B00090009820B9FFE719
:103A600001208DF8070040E00098806908B1FFE769
:103A700000E0FFE7009890F8410040B9FFE70099A7
:103A8000002081F84000009800F034F8FFE700992A
:103A9000242081F8410000980168C86820F4005093
:103AA000C860009801F038FC00980168086920F4AB
:103AB0009040086100980168486920F02A00486138
:103AC00000980168C86840F40050C8600099002060
:103AD0004864009A202182F84110009A82F842102E
:103AE000009948638DF80700FFE79DF8070002B0D2
:103AF00080BD000080B58AB0099000200890079032
:103B00000690059004900998006841F20001C4F203
:103B1000010188423ED1FFE7FFE70020039043F612
:103B20004400C4F20200016841F010010160006825
:103B300000F0100003900398FFE7FFE700200290D9
:103B400043F63000C4F20200016841F00101016057
:103B5000006800F0010002900298FFE74FF4C06097
:103B6000049002200590002000900690032007900A
:103B7000072008900020C4F2020004A9FDF792FB80
:103B8000009A252001900121FEF7A8FA0198FEF77E
:103B90009BFAFFE70AB080BD80B584B00290019126
:103BA000ADF80220029890F84200202817D1FFE7D4
:103BB000019820B1FFE7BDF8020020B9FFE701201E
:103BC0008DF80F000FE00299002008630298019918
:103BD000BDF8022001F03EFC8DF80F0003E002204A
:103BE0008DF80F00FFE79DF80F0004B080BD0000C6
:103BF00080B582B001900198006841F20001C4F2E2
:103C0000010188421CD1FFE746F22010C2F20000F9
:103C100001680020486246F20830C2F200000188C4
:103C200001310180018846F20820C2F200000144FF
:103C300046F2B010C2F200000122FFF7ADFFFFE72D
:103C400002B080BD81B0009001B07047FFE7FEE791
:103C500080B582B0019001980068C068019BD96A64
:103C60008A1CDA6208800199488E013848860198DA
:103C7000408E98B9FFE701980168486820F060001D
:103C800048600198408D40B9FFE70199012081F813
:103C900041000198FDF74EFEFFE7FFE702B080BD4F
:103CA00080B582B001900198016843F60002C4F229
:103CB000000244F20C00C4F20000914204BF43F23F
:103CC0000C40C4F200000068019BD96A01F10202B5
:103CD000DA6208800199488EA0F1010048860198B7
:103CE000408E08BBFFE70198006843F60002C4F26B
:103CF000000244F20401C4F20001904204BF43F206
:103D00000441C4F20001086820F0600008600198D6
:103D1000408D40B9FFE70199012081F841000198E9
:103D2000FDF708FEFFE7FFE702B080BD80B582B077
:103D30000190019A506A811C5162008801990968BA
:103D4000C8600199488D013848850198408D98B91F
:103D5000FFE701980168486820F0A00048600198DA
:103D6000408E40B9FFE70199012081F84100019898
:103D7000FDF7E0FDFFE7FFE702B080BD80B582B050
:103D80000190019A506A811C5162008801990A6869
:103D900043F60003C4F2000344F20C01C4F2000134
:103DA0009A4204BF43F20C41C4F200010860019939
:103DB000488DA0F1010048850198408D08BBFFE7C0
:103DC0000198006843F60002C4F2000244F20401C4
:103DD000C4F20001904204BF43F20441C4F2000166
:103DE000086820F0A00008600198408E40B9FFE705
:103DF0000199012081F841000198FDF79BFDFFE743
:103E0000FFE702B080BD000080B582B0019001984C
:103E1000806B009000980168486820F003004860BB
:103E2000009900204885009948860099012081F872
:103E300041000099486C40F0080048640098FDF784
:103E40007DFD02B080BD000080B582B00190019878
:103E5000806B00900198C06970B9FFE70098016815
:103E6000486820F0010048600099002048860099C9
:103E7000012081F84100FFE70098FEF739F802B011
:103E800080BD000080B582B001900198806B0090E9
:103E90000098FEF787F802B080BD000080B584B0BE
:103EA00003900398006880680290039890F841009E
:103EB000042842D1FFE70298C00770B1FFE70398DA
:103EC0000068406800F040010020B0EB911F04D072
:103ED000FFE7039800F078F8FFE702984006002813
:103EE0002AD5FFE703980068406800F02001002011
:103EF000B0EB511F20D0FFE703980168486820F01D
:103F000060004860FFE70020019003980068C068E7
:103F1000019003980068806801900198FFE7039979
:103F2000012081F841000399486C40F00200486488
:103F30000398FDF703FDFFE7FFE7039890F84100C2
:103F400003283ED1FFE70298800700280DD5FFE740
:103F5000039800684068C1B20020B0EBD11F04D0C4
:103F6000FFE7039800F056F8FFE7029800070028E3
:103F700026D5FFE703980068406800F02001002084
:103F8000B0EB511F1CD0FFE703980168486820F090
:103F9000A0004860FFE70020009003980068806858
:103FA00000900098FFE70399012081F841000399F0
:103FB000486C40F0040048640398FDF7BFFCFFE73D
:103FC000FFE704B080BD000080B582B00190019889
:103FD0000068C0680199C96A08800199C86A0230FE
:103FE000C8620199488E013848860198408E70B9A0
:103FF000FFE701980168486820F060004860019977
:10400000012081F841000198FDF772FFFFE702B03F
:1040100080BD000080B582B0019001980168406ABF
:104020000088C8600199486A023048620199488D49
:10403000013848850198408D70B9FFE70198016803
:10404000486820F0A00048600199012081F84100F3
:104050000198FDF7ABFFFFE702B080BD80B584B0EB
:1040600040F22000C2F20000418901398089013804
:104070008AB283B200210291084600F0E1F9029869
:104080001822C4F202024FF0004111600390FFE7D2
:10409000039840F22002C2F20002518992895143F2
:1040A000884211D2FFE740F22000C2F200000190E6
:1040B000407900F081F90198007900F07DF9FFE77F
:1040C000039801300390E3E71821C4F202014FF492
:1040D0000040086004B080BD80B586B0ADF8160021
:1040E000ADF814108DF813200020ADF81000ADF8D5
:1040F0000E00ADF80C00ADF80A009DF81310203941
:104100008DF813101822C4F202024FF00041116022
:10411000ADF81000FFE7BDF8100040F23001C2F228
:10412000000109680989884266DAFFE740F2300039
:10413000C2F20000026810689DF813101289BDF8E1
:10414000103001FB0231405C8DF809000020ADF811
:104150000E00FFE7BDF80E00072846DCFFE79DF8DC
:104160000900C00770B1FFE740F22000C2F2000072
:104170000068BDF80C2040F23401C2F2000121F8C1
:1041800012000DE040F22000C2F200004068BDF8CD
:104190000C2040F23401C2F2000121F81200FFE7C6
:1041A0009DF8090040088DF80900BDF80C000130A9
:1041B000ADF80C00BDF80A000130ADF80A00BDF8FA
:1041C0000A0040F23001C2F2000109688988884281
:1041D00004D1FFE70020ADF80A0006E0FFE7BDF8D4
:1041E0000E000130ADF80E00B4E7FFE7BDF8100097
:1041F0000130ADF810008EE7BDF81600BDF81410C0
:1042000040F23002C2F20002019213689A8802441E
:10421000013ADB880B44013B92B29BB200F010F9EB
:10422000019801688888C988484381B240F2340007
:10423000C2F2000000F032FA06B080BD80B584B052
:10424000ADF80E00ADF80C100292FFE7BDF80E10AD
:1042500040F22000C2F20000428900209142019009
:1042600007DAFFE702980078002818BF01200190C4
:10427000FFE70198C007B8B1FFE7BDF80E00BDF831
:104280000C10029A1278FFF727FF40F23000C2F2BA
:10429000000000688188BDF80E000844ADF80E00EB
:1042A000029801300290D1E704B080BD80B590B093
:1042B00000200F900E900D900C900B90FFE70020C7
:1042C0000A9043F63000C4F20200016841F0010197
:1042D0000160006800F001000A900A98FFE7FFE71C
:1042E0000020099043F63000C4F20200016841F05A
:1042F00008010160006800F0080009900998FFE7D4
:10430000FFE70020089043F63000C4F20200016885
:1043100041F008010160006800F00800089008986A
:10432000FFE74FF4004004900B90012003900C90A5
:10433000002007900D90022000900E900020C4F203
:1043400002000BA90191FCF7ADFF0199039A0798B0
:104350004FF4805306930B930C920D900E9040F601
:104360000040C4F202000590FCF79CFF009A0199FE
:10437000DDF80CC00598079B4FF4005ECDF808E00F
:10438000CDF82CE0CDF830C00D930E92FCF78AFFEB
:104390000299039A0598FDF761F9049B059806991F
:1043A000079A40F2180CC4F2020CCCF80030FDF76A
:1043B00055F910B080BD000080B582B08DF80700BF
:1043C00000208DF80600FFE79DF80600072834DC82
:1043D000FFE740F20040C4F2020008210022FDF78E
:1043E0003DF99DF807000006002809D5FFE740F2D7
:1043F0000040C4F2020020210122FDF72FF908E05D
:1044000040F20040C4F2020020210022FDF726F90C
:10441000FFE79DF8070040008DF8070040F20040DC
:10442000C4F2020008210122FDF718F9FFE79DF808
:10443000060001308DF80600C6E702B080BD00001E
:1044400080B584B0ADF80E00ADF80C10ADF80A20C0
:10445000ADF808301821C4F2020101914FF000407C
:1044600008602A2000F048F9BDF80E0040F2200153
:10447000C2F200010091897B084480B200F062F929
:104480000099BDF80A00897B084480B200F05AF90F
:104490002B2000F031F90099BDF80C00C97B0844CD
:1044A00080B200F04FF90099BDF80800C97B0844BC
:1044B00080B200F047F92C2000F01EF901994FF46A
:1044C0000040086004B080BD81B00090009840F2C8
:1044D0003001C2F20001086001B0704783B0029061
:1044E0000020ADF80600ADF80400ADF80200029817
:1044F00000F47800000AADF80600029800F47C4051
:104500004009ADF804009DF80800C008ADF80200AD
:10451000BDF80600BDF804100843BDF802100843BA
:1045200040F22001C2F20001486003B07047000071
:1045300083B002900020ADF80600ADF80400ADF89D
:104540000200029800F47800000AADF80600029814
:1045500000F47C404009ADF804009DF80800C00854
:10456000ADF80200BDF80600BDF804100843BDF820
:104570000210084340F22001C2F20001086003B0BB
:104580007047000080B582B08DF807009DF80700E5
:1045900040F22001C2F2000148721821C4F2020167
:1045A0004FF0004008609DF80700A0B9FFE73620F3
:1045B00000F0A2F8702000F0DFF840F22001C2F213
:1045C0000001142088730020C8734FF48C70488158
:1045D000F02088814EE09DF80700022815D1FFE702
:1045E000362000F089F80020009000F0C5F800980F
:1045F00040F22001C2F2000188731420C873F02039
:1046000048814FF48C70888133E09DF807000128C1
:1046100014D1FFE7362000F06FF8A02000F0ACF8CE
:1046200040F22001C2F20001142088730020C873F8
:104630004FF48C704881F020888119E09DF80700C4
:10464000032814D1FFE7362000F056F8C02000F010
:1046500093F840F22001C2F2000100208873142078
:10466000C873F02048814FF48C708881FFE7FFE722
:10467000FFE7FFE71821C4F202014FF40040086091
:1046800002B080BD81B08DF803009DF8030040F2B8
:104690002001C2F20001087201B0704780B584B0F9
:1046A0000390ADF80A101821C4F202014FF0004047
:1046B000086000200190FFE70198BDF80A108842C9
:1046C00012D2FFE70398019900EB41004078FFF711
:1046D00073FE0398019910F81100FFF76DFEFFE7D4
:1046E000019801300190E7E71821C4F202014FF46C
:1046F0000040086004B080BD80B584B08DF80F0024
:1047000040F60040C4F2020001904FF400510291C3
:104710000022FCF7A3FF1821C4F2020100914FF020
:10472000004008609DF80F00FFF746FE009B0198CF
:1047300002994FF400421A600122FCF78FFF04B087
:1047400080BD000080B582B0ADF806001821C4F22B
:10475000020100914FF0004008609DF80700FFF74C
:104760002BFE9DF80600FFF727FE00994FF400404E
:10477000086002B080BD000080B582B08DF80700EF
:104780001821C4F2020100914FF0004008609DF82A
:104790000700FFF711FE00994FF40040086002B0D7
:1047A00080BD000080B582B0FFE70020019043F695
:1047B0003000C4F20200016841F400110160006899
:1047C00000F4001001900198FFE70E2000900F21E7
:1047D0000022FDF783FC0098FDF776FC02B080BD57
:1047E00080B590B000200F900E900D900C900B9023
:1047F000FFE700200A9043F63000C4F2020001688F
:1048000041F080010160006800F080000A900A9881
:10481000FFE7FFE70020099043F63000C4F20200F2
:10482000016841F004010160006800F00400099093
:104830000998FFE7FFE70020089043F63000C4F234
:104840000200016841F002010160006800F002000E
:1048500008900898FFE7FFE70020079043F6300034
:10486000C4F20200016841F001010160006800F03B
:10487000010007900798FFE740F60000C4F202002D
:1048800001900121039100220492FCF7E7FE049AB3
:1048900040F20040C4F20200059028210291FCF78A
:1048A000DDFE0198039A04990B920C920D910E91E2
:1048B0000BA90691FCF7F6FC0198049A06990223CD
:1048C0000B930C920D92FCF7EDFCDDF808C0039BF6
:1048D000049A05980699CDF82CC00C930D920E926F
:1048E000FCF7E0FC10B080BD80B582B046F2D80085
:1048F000C2F20000019043F60001C4F20001016021
:104900004FF440714160002181600322C260016167
:104910004FF4FA5242618161C1610162FDF71AF8F8
:1049200018B1FFE7FBF7F0FFFFE702B080BD000022
:1049300080B588B0002101910791069105910491FD
:104940000391029146F22010C2F2000040F60002EC
:10495000C4F200020260416081604FF6FF72C260E3
:1049600001618161FEF72EFB18B1FFE7FBF7CCFF79
:10497000FFE74FF48050049046F22010C2F200008E
:1049800004A9FEF737FC18B1FFE7FBF7BDFFFFE70F
:1049900000200290039046F22010C2F2000002A90B
:1049A000FEF77EFA18B1FFE7FBF7AEFFFFE708B0AE
:1049B00080BD000080B582B000210191009146F2D7
:1049C0006810C2F2000041F20002C4F2000202606C
:1049D000A722426081604FF6FF72C2608161FEF7DC
:1049E000F1FA18B1FFE7FBF78FFFFFE70020009017
:1049F000019046F26810C2F200006946FEF750FAD4
:104A000018B1FFE7FBF780FFFFE702B080BD0000B1
:104A100080B582B046F2B010C2F20000019041F2BF
:104A20000001C4F2010101604FF4E1314160002155
:104A30008160C16001610C2242618161C161FFF747
:104A400009F818B1FFE7FBF75FFFFFE746F2B01088
:104A5000C2F2000046F20821C2F200010122FFF773
:104A60009BF802B080BD0000FFE7FEE7FFE7FEE72E
:104A700088B0079006910592079800F0070004900F
:104A80000498C0F10700052803D3FFE70420019034
:104A900004E00498C0F107000190FFE7019803903B
:104AA00004980430062803D8FFE70020009003E0B4
:104AB000049803380090FFE7009802900698039945
:104AC000012202FA01F101390840029B9840059940
:104AD0009A40013A1140084308B0704770470000FF
:104AE00080B546F2D800C2F20000FCF72BFF80BD73
:104AF00080B590B0FFF7DAFB0A20FCF7B1FB182174
:104B0000C4F202010D914FF0004008603620FFF71B
:104B1000F3FD00200E90FFF72FFE3A20FFF7ECFD8B
:104B20000520FFF729FEB220FFF7E6FD0C200590D7
:104B3000FFF722FE0598FFF71FFE0E98FFF71CFEF9
:104B400033200190FFF718FE0198FFF715FEB720FC
:104B5000FFF7D2FD3520FFF70FFEBB20FFF7CCFD9E
:104B60001920FFF709FEC020FFF7C6FD2C20079093
:104B7000FFF702FEC220FFF7BFFD01200F90FFF7F5
:104B8000FBFDC320FFF7B8FD1220FFF7F5FDC420A1
:104B9000FFF7B2FD20200A90FFF7EEFDC620FFF7D9
:104BA000ABFD0F20FFF7E8FDD0200390FFF7A4FD39
:104BB000A420FFF7E1FDA120FFF7DEFDE020FFF7D5
:104BC0009BFD0398FFF7D8FD04200490FFF7D4FD68
:104BD0000D200290FFF7D0FD11200C90FFF7CCFDC7
:104BE00013200690FFF7C8FD2B20FFF7C5FD3F20DF
:104BF0000890FFF7C1FD5420FFF7BEFD4C20FFF7E2
:104C0000BBFD1820FFF7B8FD0298FFF7B5FD0B209C
:104C1000FFF7B2FD1F200990FFF7AEFD23200B9098
:104C2000FFF7AAFDE120FFF767FD0398FFF7A4FD5A
:104C30000498FFF7A1FD0598FFF79EFD0C98FFF77C
:104C40009BFD0698FFF798FD0798FFF795FD0898DC
:104C5000FFF792FD4420FFF78FFD5120FFF78CFDF9
:104C60002F20FFF789FD0998FFF786FD0998FFF7C8
:104C700083FD0A98FFF780FD0B98FFF77DFD21204B
:104C8000FFF73AFD0C98FFF737FD7820FCF7E8FABC
:104C90002920FFF731FD0D994FF4004008600220F4
:104CA000FFF770FC0E98FFF719FC6FF07F40FFF7DD
:104CB0003FFCFFF7D3F940F20400C2F20000FFF717
:104CC00003FC0E98FFF7DEFC0F9A40F60040C4F29A
:104CD00002004FF48051FCF7C1FC10B080BD000011
:104CE0007047000080B582B0009000980138B0F1A4
:104CF000807F03D3FFE70120019019E0009801387D
:104D00004EF21401CEF2000108604FF0FF300F2187
:104D100000F046FC4EF21801CEF2000100200860BF
:104D20004EF21002CEF20002072111600190FFE75F
:104D3000019802B080BD000080B5FDF73BF980BD51
:104D400080B594B008A83021FBF772FA00200790D4
:104D50000690059004900390FFE70020029043F630
:104D60004000C4F20200016841F080510160006817
:104D700000F0805002900298FFE7FFE700200190CA
:104D800047F20000C4F20000016841F48041016074
:104D9000006800F4804001900198FFE7012008902E
:104DA0004FF48030099002210E914FF480000F9053
:104DB00004201090A82211921291139008A8FDF7D8
:104DC000FFFC18B1FFE7FBF79FFDFFE70F20039003
:104DD00002200490002005904FF4A05006904FF45C
:104DE0008050079003A80521FDF71AFB18B1FFE7D3
:104DF000FBF78AFDFFE714B080BD00004EF6885136
:104E0000CEF20001086840F47000086070470000AE
:104E100080B546F22010C2F20000FEF7B1FA80BD64
:104E200080B546F26810C2F20000FEF7A9FA80BD14
:104E300083B00290019102980068009002980021CE
:104E4000C4F20101884225D0FFE70298B0F1804FFB
:104E500020D0FFE7029840F20041C4F200018842EE
:104E600018D0FFE7029840F60001C4F20001884222
:104E700010D0FFE7029840F60041C4F200018842DA
:104E800008D0FFE7029840F20041C4F201018842D5
:104E90000AD1FFE7009820F0700000900198416867
:104EA000009808430090FFE702980021C4F2010136
:104EB000884255D0FFE70298B0F1804F50D0FFE70D
:104EC000029840F20041C4F20001884248D0FFE756
:104ED000029840F60001C4F20001884240D0FFE78A
:104EE000029840F60041C4F20001884238D0FFE742
:104EF000029840F20041C4F20101884230D0FFE73D
:104F0000029844F20001C4F20101884228D0FFE770
:104F1000029844F20041C4F20101884220D0FFE728
:104F2000029844F60001C4F20101884218D0FFE75C
:104F3000029841F60001C4F20001884210D0FFE758
:104F4000029841F60041C4F20001884208D0FFE710
:104F5000029842F20001C4F2000188420AD1FFE740
:104F6000009820F4407000900198C16800980843B0
:104F70000090FFE7009820F08000019949690843FC
:104F80000090019880680299C862019800680299AF
:104F9000886202980021C4F20101884208D0FFE72C
:104FA000029840F20041C4F20101884205D1FFE7B6
:104FB0000198006902990863FFE70299086840F0C8
:104FC0000400086002990120486100980299086075
:104FD00003B0704785B00490039102920193049846
:104FE00080680090009820F47F4000900398029918
:104FF000019A41EA02210143009808430090009879
:105000000499886005B0704783B0029001910298BE
:1050100080680090009820F070000090019800993E
:10502000084340F00700009000980299886003B0A0
:105030007047000085B00490039102920498006AC2
:1050400000900499086A20F00100086204988069C1
:105050000190019820F0F00001900299019840EA37
:1050600001100190009820F00A0000900399009828
:105070000843009001980499886100980499086297
:1050800005B0704785B00490039102920498006ABD
:1050900000900499086A20F0100008620498806962
:1050A0000190019820F4704001900299019840EA23
:1050B00001300190009820F0A00000900399009822
:1050C00040EA0110009001980499886100980499C1
:1050D000086205B07047000080B582B00190019869
:1050E000806B009000990020C8850098FEF780FA38
:1050F00002B080BD84B00390FFE7FFE7039800682B
:1051000050E8030F20F490700290FFE70299039893
:10511000026842E803100028F0D1FFE7FFE7FFE74D
:10512000FFE70398006850E8050F20F001000190A8
:10513000FFE701990398026842E805100028F0D1C2
:10514000FFE7FFE70398006B012814D1FFE7FFE7B3
:10515000FFE70398006850E8030F20F0100000906C
:10516000FFE700990398026842E803100028F0D195
:10517000FFE7FFE7FFE70399202081F8420003994A
:105180000020086304B0704780B582B00190019898
:105190000168C86820F04000C8600199202081F8AB
:1051A00041000198FEF74EFD002002B080BD0000D6
:1051B00080B586B00490002003900290049890F887
:1051C0004200222840F0A080FFE704988068B0F5F4
:1051D000805F13D1FFE70498006978B9FFE704986E
:1051E000806A02900498006840686FF35F2002991B
:1051F00008800499886A0230886223E00498806AF3
:10520000039004988068B0F5805F08D0FFE70498A9
:10521000806850B9FFE70498006930B9FFE7049847
:10522000006840680399087007E0049800684068C7
:1052300000F07F0003990870FFE70499886A013045
:105240008862FFE70499C88D0138C88500040028EA
:1052500056D1FFE704980168C86820F02000C860B4
:1052600004980168C86820F48070C86004980168D8
:10527000486920F0010048610499202081F842002B
:105280000499002048630498006B012830D1FFE79F
:10529000049900200863FFE7FFE70498006850E8DE
:1052A000030F20F010000190FFE7019904980268B5
:1052B00042E803100028F0D1FFE7FFE704980068F8
:1052C0000068C00600280ED5FFE7FFE70020009029
:1052D0000498006800680090049800684068009096
:1052E0000098FFE7FFE70498818DFEF77BF903E064
:1052F0000498FEF77DFCFFE700208DF8170007E01B
:1053000000208DF8170003E002208DF81700FFE75A
:105310009DF8170006B080BD80B586B00590059851
:105320000068006920F44050059A1168D268104363
:105330000861059988680B694A69C969184310436F
:105340000843049005980068C06849F20C618843DE
:105350000499084305990968C86005980068406980
:1053600020F44070059A11689269104348610598CD
:10537000006841F20001C4F20101884209D0FFE750
:105380000598006841F20041C4F20101884204D14D
:10539000FFE7FDF78FF9039003E0FDF779F903903C
:1053A000FFE70598C069B0F5004F29D1FFE70398E2
:1053B0001921A0FB0101059A1368029353685A0052
:1053C000DB0FFAF7FDFE0299864648F21F53C5F23D
:1053D000EB13AEFB0320420910014FF0640C02FBFB
:1053E0001CEC322202EBCC02A2FB0332F82303EACC
:1053F000521300EB4300C2F342121044886026E0CF
:1054000003981921A0FB0101059A136801935368C1
:105410009A009B0FFAF7D4FE0199844648F21F5276
:10542000C5F2EB12ACFB02304309642003FB10CC45
:10543000322000EB0C10A0FB0202F02000EA521018
:1054400000EB0310C2F3431210448860FFE706B07C
:1054500080BD000083B002900191ADF80220019858
:1054600002998862BDF8020002998885BDF80200A1
:105470000299C8850299002048640299222081F887
:1054800042000298006938B1FFE702980168C868D5
:1054900040F48070C860FFE702980168486940F0F6
:1054A0000100486102980168C86840F02000C860A7
:1054B000002003B07047000083B00190019890F87D
:1054C000410021283AD1FFE701988068B0F5805F5C
:1054D00013D1FFE70198006978B9FFE70198006AE6
:1054E0000090009800886FF35F2001990968486078
:1054F0000199086A0230086208E0019A106A411CAA
:1055000011620078019909684860FFE70199C88C29
:105510000138C884000468B9FFE701980168C868C9
:1055200020F08000C86001980168C86840F0400021
:10553000C860FFE700208DF80B0003E002208DF823
:105540000B00FFE79DF80B0003B0704780B546F2F3
:10555000B010C2F20000FEF74FF880BDFFE7FEE793
:1055600081B08DF803009DF9030000280ED4FFE7F9
:105570009DF9031001F01F02012090404A094EF2EC
:105580000011CEF2000141F82200FFE701B07047A0
:105590004EF60C50CEF200000068C0F302207047B7
:1055A00082B08DF8070000919DF9070000280AD409
:1055B000FFE7009800019DF907104EF20042CEF27D
:1055C000000288540BE0009800019DF8071001F0DC
:1055D0000F014EF61452CEF200028854FFE702B0DB
:1055E0007047000083B00290029800F0070000901E
:1055F0004EF60C51CEF200010868019001984FF66A
:10560000FF02104001900198009A40EA0220002217
:10561000C0F2FA52104301900198086003B070473D
:1056200087B00690ADF81610049200200190FFE7B5
:105630000198BDF81610884237D2FFE70498019907
:1056400030F81100800803900498019900EB4100A4
:105650004088800802900698039950F82100009035
:105660000699029851F82000039A41F82200009808
:105670000699029A41F822000698039900EB8100EE
:10568000406800900699029801EB80004068039AF8
:1056900001EB8201486000980699029A01EB8201B1
:1056A0004860019802300190C2E707B070470000DF
:1056B00080B588B0079006918DF817208DF81630C8
:1056C0000798008804909DF8170001281BD1FFE778
:1056D00006980430019000200390FFE70398049996
:1056E00088420FD2FFE7019890ED000AB1EE400A20
:1056F00080ED000A019808300190FFE7039801301F
:105700000390EBE7FFE704980090102825D0FFE70F
:105710000098202826D0FFE70098402827D0FFE7F0
:105720000098802819D0FFE70098B0F5807F19D045
:10573000FFE70098B0F5007F19D0FFE70098B0F5BB
:10574000806F0AD0FFE70098B0F5006F0AD0FFE73E
:105750000098B0F5805F0AD012E00798069900F033
:1057600033F90DE00798069900F024FB08E006984D
:10577000BDF81010079A5268012301F0F1F8FFE715
:105780009DF8160038B1FFE70698079A918992684C
:10579000FFF746FFFFE79DF81700012831D1FFE72B
:1057A0009DED040AB8EE401AB7EE000A80EE010A39
:1057B0008DED020A0698019000200390FFE7039800
:1057C000049988421CD2FFE79DED021A0198011D41
:1057D000019190ED000A20EE010A80ED000A019887
:1057E00090ED000A9DED021A20EE410A80ED000ABC
:1057F000019804300190FFE7039801300390DEE741
:10580000FFE708B080BD000082B0019000208DF855
:105810000300019A4FF480611180019948604DF6B0
:105820003870C0F600008189019A91818168019ADF
:1058300091604068019948609DF9030002B070478B
:1058400082B0019000208DF80300019A8021118020
:10585000019948604DF64870C0F600008189019AB0
:1058600091818168019A91604068019948609DF931
:10587000030002B07047000082B0019000208DF854
:105880000300019A10211180019948604DF658706B
:10589000C0F600008189019A91818168019A916026
:1058A0004068019948609DF9030002B0704700000C
:1058B00082B0019000208DF80300019A4FF400613E
:1058C0001180019948604DF66870C0F6000081892A
:1058D000019A91818168019A9160406801994860BC
:1058E0009DF9030002B0704782B0019000208DF84E
:1058F0000300019A4FF480711180019948604DF6C0
:105900007870C0F600008189019A91818168019ABE
:1059100091604068019948609DF9030002B07047AA
:1059200082B0019000208DF80300019A202111809F
:10593000019948604DF68870C0F600008189019A8F
:1059400091818168019A91604068019948609DF950
:10595000030002B07047000082B0019000208DF873
:105960000300019A4FF400711180019948604DF6CF
:105970009870C0F600008189019A91818168019A2E
:1059800091604068019948609DF9030002B070473A
:1059900082B0019000208DF80300019A402111800F
:1059A000019948604DF6A870C0F600008189019AFF
:1059B00091818168019A91604068019948609DF9E0
:1059C000030002B07047000080B5A2B02190209182
:1059D000219800881F9020981F9900EB81001A9051
:1059E00021984068199020981E901A981D901F9831
:1059F00040081F9020981F9900EB81001C901A9876
:105A00001F9900EB81001B901F9880080290FFE710
:105A10000298002800F0BA81FFE7209800681590EE
:105A20002098406816902098806817902098C06849
:105A300018901A98006811901A98406812901A9855
:105A4000806813901A98C06814901C9800680D9094
:105A50001C9840680E901C9880680F901C98C06835
:105A600010901B98006809901B9840680A901B983A
:105A700080680B901B98C0680C909DED150A9DEDF9
:105A8000111A30EE010A2098011D209180ED000AC4
:105A90009DED160A9DED121A30EE010A2098011DA7
:105AA000209180ED000A9DED170A9DED131A30EE4E
:105AB000010A2098011D209180ED000A9DED180A31
:105AC0009DED141A30EE010A2098011D209180ED01
:105AD000000A9DED150A9DED111A30EE410A8DED7B
